{
  "contractName": "TaxPayment",
  "abi": [
    {
      "anonymous": false,
      "inputs": [
        {
          "indexed": true,
          "internalType": "address",
          "name": "sender",
          "type": "address"
        },
        {
          "indexed": true,
          "internalType": "address",
          "name": "recipient",
          "type": "address"
        },
        {
          "indexed": false,
          "internalType": "uint256",
          "name": "amount",
          "type": "uint256"
        },
        {
          "indexed": false,
          "internalType": "string",
          "name": "senderName",
          "type": "string"
        },
        {
          "indexed": false,
          "internalType": "string",
          "name": "recipientName",
          "type": "string"
        },
        {
          "indexed": false,
          "internalType": "string",
          "name": "panCard",
          "type": "string"
        }
      ],
      "name": "TaxPaid",
      "type": "event"
    },
    {
      "inputs": [
        {
          "internalType": "address",
          "name": "recipient",
          "type": "address"
        },
        {
          "internalType": "uint256",
          "name": "amount",
          "type": "uint256"
        },
        {
          "internalType": "string",
          "name": "senderName",
          "type": "string"
        },
        {
          "internalType": "string",
          "name": "recipientName",
          "type": "string"
        },
        {
          "internalType": "string",
          "name": "panCard",
          "type": "string"
        }
      ],
      "name": "payTax",
      "outputs": [],
      "stateMutability": "nonpayable",
      "type": "function"
    }
  ],
  "bytecode": "0x608060405234801561001057600080fd5b50610499806100206000396000f3fe608060405234801561001057600080fd5b506004361061002b5760003560e01c8063f5e8413714610030575b600080fd5b61004a600480360381019061004591906102ac565b61004c565b005b8473ffffffffffffffffffffffffffffffffffffffff163373ffffffffffffffffffffffffffffffffffffffff167f6f888ba2fa365203c39f6599bdbb0f26157acf46b2c2bb8dba08fc62ddee9724868686866040516100af9493929190610409565b60405180910390a35050505050565b6000604051905090565b600080fd5b600080fd5b600073ffffffffffffffffffffffffffffffffffffffff82169050919050565b60006100fd826100d2565b9050919050565b61010d816100f2565b811461011857600080fd5b50565b60008135905061012a81610104565b92915050565b6000819050919050565b61014381610130565b811461014e57600080fd5b50565b6000813590506101608161013a565b92915050565b600080fd5b600080fd5b6000601f19601f8301169050919050565b7f4e487b7100000000000000000000000000000000000000000000000000000000600052604160045260246000fd5b6101b982610170565b810181811067ffffffffffffffff821117156101d8576101d7610181565b5b80604052505050565b60006101eb6100be565b90506101f782826101b0565b919050565b600067ffffffffffffffff82111561021757610216610181565b5b61022082610170565b9050602081019050919050565b82818337600083830152505050565b600061024f61024a846101fc565b6101e1565b90508281526020810184848401111561026b5761026a61016b565b5b61027684828561022d565b509392505050565b600082601f83011261029357610292610166565b5b81356102a384826020860161023c565b91505092915050565b600080600080600060a086880312156102c8576102c76100c8565b5b60006102d68882890161011b565b95505060206102e788828901610151565b945050604086013567ffffffffffffffff811115610308576103076100cd565b5b6103148882890161027e565b935050606086013567ffffffffffffffff811115610335576103346100cd565b5b6103418882890161027e565b925050608086013567ffffffffffffffff811115610362576103616100cd565b5b61036e8882890161027e565b9150509295509295909350565b61038481610130565b82525050565b600081519050919050565b600082825260208201905092915050565b60005b838110156103c45780820151818401526020810190506103a9565b60008484015250505050565b60006103db8261038a565b6103e58185610395565b93506103f58185602086016103a6565b6103fe81610170565b840191505092915050565b600060808201905061041e600083018761037b565b818103602083015261043081866103d0565b9050818103604083015261044481856103d0565b9050818103606083015261045881846103d0565b90509594505050505056fea264697066735822122014a182512475a9051e7e68f9e18a97ad75cb099da96a088256b987e2a22b66e964736f6c63430008140033",
  "immutableReferences": {},
  "source": "// SPDX-License-Identifier: UNLICENSED\r\n\r\npragma solidity ^0.8.0;\r\n\r\ncontract TaxPayment {\r\n    // Define an event that logs payment details\r\n    event TaxPaid(\r\n        address indexed sender,\r\n        address indexed recipient,\r\n        uint amount,\r\n        string senderName,\r\n        string recipientName,\r\n        string panCard\r\n    );\r\n\r\n    // Example function to pay tax and emit the event\r\n    function payTax(address recipient, uint amount, string memory senderName, string memory recipientName, string memory panCard) public {\r\n        // [Add your logic here to transfer funds etc.]\r\n\r\n        // Emit an event with the payment details\r\n        emit TaxPaid(msg.sender, recipient, amount, senderName, recipientName, panCard);\r\n    }\r\n}",
  "sourcePath": "C:\\Users\\ranji\\Desktop\\test\\taxweb\\contracts\\TaxPayment.sol",
  "compiler": {
    "name": "solc",
    "version": "0.8.20+commit.a1b79de6.Emscripten.clang"
  },
  "schemaVersion": "3.4.16",
  "updatedAt": "2024-03-18T11:21:24.342Z",
  "devdoc": {
    "kind": "dev",
    "methods": {},
    "version": 1
  },
  "userdoc": {
    "kind": "user",
    "methods": {},
    "version": 1
  }
}